:100000000C94B0000C94CD000C94CD000C94CD0059
:100010000C94CD000C94CD000C94CD000C94CD002C
:100020000C94CD000C94CD000C9423020C9461022E
:100030000C94CD000C94CD000C94CD000C94CD000C
:100040000C94CD000C94CD000C94CD000C94CD00FC
:100050000C94CD000C94CD000C94CD000C94CD00EC
:100060000C94CD000C94CD000C94CD000C94CD00DC
:100070000C94CD000C94CD000C94CD000C94CD00CC
:100080000C94CD000C94CD000C94CD000C94CD00BC
:100090000C94CD000C94CD000C94CD000C94CD00AC
:1000A0000C94CD000C94CD000C94CD000001000008
:1000B0004301120002000000014300030000FC00A5
:1000C0000401030904E8001202030904E000060326
:1000D000030904D600080803340031003000000092
:1000E00006034D003200000012034A002E002000DB
:1000F0004600690065006E00650000000403090405
:1001000009024300020100C032090400000102029A
:100110000100052400100105240101010424020648
:1001200005240600010705820310004009040100B0
:10013000020A0000000705030240000007058402D0
:100140004000001201000202000010C0167A0400F4
:1001500001010203010001C1120180360181360054
:1001600011241FBECFEFDAE0DEBFCDBF11E0A0E06B
:10017000B1E0E4E2F8E002C005900D92A830B107CA
:10018000D9F721E0A8E0B1E001C01D92AB30B20781
:10019000E1F70E941B010C9410040C940000ACE7E2
:1001A000B0E01C92EAE7F0E010828C9180648C93BE
:1001B0008081876880830895ACE7B0E01C92EAE70D
:1001C000F0E010829C91892B8C938C9180648C93AD
:1001D0008081876080838081806880838081806463
:1001E0008083808184FFFDCFEAE7F0E08081806139
:1001F000808320E140E050E0A8E7B0E09081906487
:100200009083908194FFFDCF9081906190838D9138
:100210009C911197480F591F215081F7EAE7F0E0B0
:1002200080818F778083CA01929582958F7089270C
:100230009F7089270895229A0E94CF008AB1806C0E
:100240008AB93E9A6E9A1092BF001092BE00E3ECFB
:10025000F0E0808181608083E2ECF0E08081896061
:100260008083E0ECF0E0808182648083E1ECF0E068
:100270008081876080838FEF8093CF001092D200BF
:100280002FEF83ED90E3215080409040E1F700C0D4
:100290000000D12CD0E00F2EFFECEF2EF12CF02D32
:1002A000BB24BA9402ED10E0C4E00F2EF3E07F2EE1
:1002B000F02D0F2EFDEC8F2EF02D0F2EF2E3AF2E32
:1002C000F02DCC24C3946894662461F8912C07C067
:1002D000D92D05C0D12C03C0D62D01C0DC2FD230C2
:1002E00009F466C028F4DD2349F0D13001F1F0CFE4
:1002F000D33009F493C0D43091F3EACF2CE231E04B
:1003000085B18C2785B9EFE9FFE03197F1F700C09F
:10031000000021503109A1F7FFEF23ED80E3F150F8
:1003200020408040E1F700C00000DC2DD8CF8C2FAA
:100330000E94DC002C0186E00E94DC001C0185E0AC
:100340000E94DC00A201B1010E94E703813009F0A4
:10035000C1CFD394DD2019F299E2D99E812D1124C9
:10036000869586958695ED2D8A9DE0191124E111DB
:1003700006C0F8ECDF12B0CF45E050E016C027EC25
:100380002D1588F0ACCF85B18C2785B98FE697E124
:100390000197F1F700C0000021503109A1F7415049
:1003A000510919F49BCF45E050E02CE231E0EBCF4E
:1003B000F701B082F8011082FFEF27EA81E6F150E1
:1003C00020408040E1F700C0000043E050E018C04A
:1003D00085B18C2785B9EFE8F1E03197F1F700C0DE
:1003E000000021503109A1F7FFEF29E688E1F15023
:1003F00020408040E1F700C000004150510919F051
:100400002CE231E0E5CF9FEFE7EAF1E69150E040E2
:10041000F040E1F700C00000D72D61CF5E9A769AD8
:10042000F7018082F801A082FFEF23EC89E0F15010
:1004300020408040E1F700C00000F701B082F801E1
:100440001082DC2D4CCF1F920F920FB60F92112409
:100450008F939F93EF93FF93E1EEF0E08081108202
:1004600083FF11C01092E90091E09093EB0010928D
:10047000EC0092E19093ED0098E09093F0001092E0
:100480000A011092080182FF13C080910A0188239B
:1004900079F080910901882359F0815080930901F6
:1004A000811106C084E08093E9008AE38093E8002C
:1004B000FF91EF919F918F910F900FBE0F901F9022
:1004C00018951F920F920FB60F9211240F931F933E
:1004D0002F933F934F935F936F937F938F939F934C
:1004E000AF93BF93CF93DF93EF93FF931092E90005
:1004F0008091E80083FF4FC1E1EFF0E0A0818081AF
:100500002081908130E0392B4081908150E0BA0108
:10051000792BC081D08192EF9093E800863009F06A
:1005200059C004C081E28093EB003CC14CEA50E02A
:1005300006ED10E0CA01FA01A591B4912A173B0714
:1005400009F5FA013296A591B4916A177B07D1F4A7
:10055000FA01349645915491FC01369624918C2FE2
:1005600090E09D2B8F3F910519F010F08FEF90E0F8
:10057000821708F4282FA8EEB0E070E16EEFC1EF0B
:10058000D0E006C0495F5F4F4017510799F6CACFC8
:100590008C91982F9570E1F382FD04C1322F2131A7
:1005A00008F0372F332309F4FAC0FA01832F94910E
:1005B0009883815031968111FACF8FEF830F90E0AD
:1005C0000196480F591F231B6C932111E1CF303145
:1005D000F9F2E8C0853061F48EEF8093E800E8EE30
:1005E000F0E0808180FFFDCF20682093E300DAC037
:1005F000893009F035C0A111CEC020930A011092B4
:100600000801109209018EEF8093E80081E025E552
:1006100031E0C9EED0E0ABEEB0E00CEE10E06DEEF4
:1006200070E08883A9014F5F5F4FF90194919C931B
:10063000992361F0FA014491F8014083F90132965F
:1006400094912D5F3F4FFB01908301C09A018F5F12
:10065000853039F7EAEEF0E08EE180831082A2C0A7
:10066000883081F4A03809F096C0E8EEF0E080818F
:1006700080FFFDCF80910A018093F1008EEF80937F
:10068000E80090C08132B9F4A13A09F084C0E8EEE4
:10069000F0E0808180FFFDCFE0E0F1E027E031E095
:1006A000A1EFB0E081918C932E173F07D9F78EEF21
:1006B0008093E80077C08032D1F4A13209F06BC09A
:1006C000E8EEF0E0808182FFFDCFE0E0F1E027E09E
:1006D00031E0A1EFB0E08C9181932E173F07D9F75D
:1006E000E8EEF0E08BEF80838EEF80835BC0823298
:1006F00071F4A13209F04FC020930801E8EEF0E058
:10070000808180FFFDCF8EEF8093E8004BC0811188
:100710001AC0E8EEF0E0808180FFFDCFA23851F4EE
:10072000E9EEF0E060838091EB0085FB882780F99B
:10073000108201C080E0E1EFF0E0808310828EEF54
:100740008093E8002FC0982F9D7F913021F5A23033
:1007500011F5232B01F5462F4F779FEF940F94301F
:10076000D0F49EEF9093E8004093E900833021F4A9
:1007700081E28093EB0016C089E18093EB0081E079
:1007800090E002C0880F991F4A95E2F7EAEEF0E088
:100790008083108207C081E28093EB0003C06C93DA
:1007A0002111F6CEFF91EF91DF91CF91BF91AF91E3
:1007B0009F918F917F916F915F914F913F912F9179
:1007C0001F910F910F900FBE0F901F9018958037BB
:1007D000934050F45E9876988DEC8093CF0082E33E
:1007E0008093D20080E008956037734050F45E9AA1
:1007F00076988DEC8093CF0082E38093D20080E0E6
:1008000008954037534050F45E98769A8DEC80936B
:10081000CF0082E38093D20080E0089581E00895C4
:04082000F894FFCF7A
:0808240000E1000000000800E3
:00000001FF
